:100000000C9472000C9491000C9491000C9491004B
:100010000C9491000C9491000C9491000C9491001C
:100020000C9491000C9491000C9491000C9491000C
:100030000C9491000C9491000C9491000C949100FC
:100040000C9491000C9491000C9491000C949100EC
:100050000C9491000C9491000C9491000C949100DC
:100060000C9491000C9491000C9491000C949100CC
:100070000C9491000C9491000C9491000C949100BC
:100080000C9491000C9491000C9491000C949100AC
:100090000C9491000C9491000C9491000C9491009C
:1000A0000C9491000C9491000C9491000C9491008C
:1000B0000C9491000C9491000C9491000C9491007C
:1000C0000C9491000C9491000C9491000C9491006C
:1000D0000C9491000C9491000C9491000C9491005C
:1000E0000C94910011241FBECFEFD1E2DEBFCDBF33
:1000F00012E0A0E0B2E0E2EDF3E000E00BBF02C0EE
:1001000007900D92AC30B107D9F712E0ACE0B2E045
:1001100001C01D92AB33B107E1F70E9493000C942C
:10012000E7010C9400000E94BB000E949800FDCFE4
:1001300080E090E061E070E00E94F80080E197E2EA
:1001400020E931E0F9013197F1F70197D9F780E023
:1001500090E060E070E00E94F80080E092E00E9491
:100160004F0180E197E220E931E0F9013197F1F7A1
:100170000197D9F708950E94650180E090E06FEF44
:1001800070E00E94C6000E943E010895DC01AA0FA3
:10019000BB1F672BA1F0A80FB91FAE5DBD4F119615
:1001A000ED91FC911297EE0FFF1FEB5DFD4F01905B
:1001B000F081E02D80819C91892B80830895A80F88
:1001C000B91FAE5DBD4F1196ED91FC911297EE0FE8
:1001D000FF1FEB5DFD4F0190F081E02D208130E0AD
:1001E0008C9190E080959095282339232083089561
:1001F000DC01AA0FBB1F672BA1F0A80FB91FAE5DD2
:10020000BD4F1196ED91FC911297EE0FFF1FE45F29
:10021000FD4F0190F081E02D80819C91892B80839E
:100220000895A80FB91FAE5DBD4F1196ED91FC91D9
:100230001297EE0FFF1FE45FFD4F0190F081E02D5C
:10024000208130E08C9190E080959095282339238F
:1002500020830895FC01EE0FFF1FEB5DFD4F019021
:10026000F081E02D60830895FC01EE0FFF1FE45F35
:10027000FD4F0190F081E02D608308951092C5003C
:1002800087E68093C400E0ECF0E080818D7F80837E
:1002900086E08093C20088E18093C1000895FC014C
:1002A00007C08091C00085FFFCCF9093C6003196B7
:1002B00090819923B1F708950895982F8091C000F7
:1002C00085FFFCCF9093C600089581E290E0909363
:1002D00026028093250284E290E090932802809386
:1002E000270287E290E090932A02809329028AE213
:1002F00090E090932C0280932B028DE290E09093FB
:100300002E0280932D0280E390E090933002809340
:100310002F0283E390E0909332028093310281E0D8
:1003200091E0909334028093330284E091E09093C3
:1003300038028093370287E091E090933A028093ED
:10034000390282E290E090930D0280930C0285E2E4
:1003500090E090930F0280930E0288E290E09093D9
:100360001102809310028BE290E09093130280932D
:1003700012028EE290E0909315028093140281E3C2
:1003800090E0909317028093160284E390E090939C
:1003900019028093180282E091E090931B028093EF
:1003A0001A0285E091E090931F0280931E0288E07C
:1003B00091E0909321028093200280E880932202B2
:1003C00084E090E090932402809323020895F894AF
:0203D000FFCF5D
:00000001FF
