:100000000C9472000C9491000C9491000C9491004B
:100010000C9491000C9491000C9491000C9491001C
:100020000C9491000C9491000C9491000C9491000C
:100030000C9491000C9491000C9491000C949100FC
:100040000C9491000C9491000C9491000C949100EC
:100050000C9491000C9491000C9491000C949100DC
:100060000C9491000C9491000C9491000C949100CC
:100070000C9491000C9491000C9491000C949100BC
:100080000C9491000C9491000C9491000C949100AC
:100090000C9491000C9491000C9491000C9491009C
:1000A0000C9491000C9491000C9491000C9491008C
:1000B0000C9491000C9491000C9491000C9491007C
:1000C0000C9491000C9491000C9491000C9491006C
:1000D0000C9491000C9491000C9491000C9491005C
:1000E0000C94910011241FBECFEFD1E2DEBFCDBF33
:1000F00012E0A0E0B2E0E0E9F4E000E00BBF02C0F3
:1001000007900D92A030B107D9F712E0A0E0B2E05D
:1001100001C01D92AE38B107E1F70E9493000C9424
:1001200046020C9400000E94C1000E949800FDCF7E
:10013000809100029091010261E070E00E9408014C
:1001400088EE93E020E931E0F9013197F1F701976A
:10015000D9F7809100029091010260E070E00E9466
:100160000801809100029091010201969093010292
:10017000809300020C9724F010920102109200026A
:100180000895CF93DF930E944E010E947501C0E055
:10019000D0E0CE016FEF70E00E94D5002196CC3008
:1001A000D105B9F7DF91CF910895DC01AA0FBB1FEC
:1001B0006F3F7105A1F4A80FB91FA85EBD4F11963E
:1001C000ED91FC911297EE0FFF1FE858FD4F019043
:1001D000F081E02D80819C91892B80830895A80F68
:1001E000B91FA85EBD4F1196ED91FC911297EE0FCD
:1001F000FF1FE858FD4F0190F081E02D208130E095
:100200008C9190E080959095282339232083089540
:10021000DC01AA0FBB1F672BA1F0A80FB91FA85EB6
:10022000BD4F1196ED91FC911297EE0FFF1FEE5FFF
:10023000FD4F0190F081E02D80819C91892B80837E
:100240000895A80FB91FA85EBD4F1196ED91FC91BE
:100250001297EE0FFF1FEE5FFD4F0190F081E02D32
:10026000208130E08C9190E080959095282339236F
:1002700020830895FC01EE0FFF1FE858FD4F019009
:10028000F081E02D60830895FC01EE0FFF1FEE5F0B
:10029000FD4F0190F081E02D608308951092C5001C
:1002A00087E68093C400E0ECF0E080818D7F80835E
:1002B00086E08093C20088E18093C1000895FC012C
:1002C00007C08091C00085FFFCCF9093C600319697
:1002D00090819923B1F708950895982F8091C000D7
:1002E00085FFFCCF9093C600089581E20E946D01C6
:1002F00081E290E0909379028093780284E290E02A
:1003000090937B0280937A0287E290E090937D0243
:1003100080937C028AE290E090937F0280937E0239
:100320008DE290E0909381028093800280E390E0E0
:10033000909383028093820283E390E090938502FE
:100340008093840281E091E09093870280938602FB
:1003500084E091E090938B0280938A0287E091E0A1
:1003600090938D0280938C0282E290E0909303023E
:100370008093020285E290E090930502809304024C
:1003800088E290E090930702809306028BE290E06F
:1003900090930902809308028EE290E090930B0202
:1003A00080930A0281E390E090930D0280930C0207
:1003B00084E390E090930F0280930E0282E091E03C
:1003C000909311028093100285E091E090931502C2
:1003D0008093140288E091E09093170280931602B4
:1003E00050E15093180224E030E030931A02209339
:1003F000190240E240931B0230931D0220931C021D
:1004000040931E0286E090E09093200280931F02AA
:1004100088E080932102309323022093220280936C
:10042000240287E090E09093260280932502509367
:100430002702909329028093280240932A029093E6
:100440002C0280932B0220E420932D0290932F0204
:1004500080932E025093300281E090E0909332021C
:10046000809331024093330290933502809334029B
:1004700020933602909338028093370220E820932D
:10048000390290933B0280933A020895F894FFCF8B
:00000001FF
